:020000040000FA
:100000000A128A1110280134FE00030EF1000A08BA
:10001000F200831203137F08F3000A168A11F32CEF
:100020000A128A1113288313E230FD001F30FE00EC
:10003000AE30FF00C93084000A168A155F270A1205
:100040008A110A128A1103200A128A11D3000A1295
:100050008A1500200A128A11F7000A128A15012057
:100060000A128A11F800A0308400C9300A168A15D5
:1000700004270A128A113E30840053300A168A156A
:1000800004270A128A11F90183010A128A114828E9
:1000900083160317B001B00A90308400C930831270
:1000A0000313BA000408BB000C30BC003A088400FB
:1000B00083130008BD00BA0A3B08840083173D087B
:1000C0008000BB0ABC0B562883160317AD018316AC
:1000D00003135F0883160317A70083160313600832
:1000E00083160317A80083160313610883160317EA
:1000F000A900AA01AB019C019D019E019F01A001E5
:10010000A101A201A301A401A5010A168A11F223EB
:100110000A128A11473083120313A0009130A10004
:1001200000300A168A114E220A128A1101300A166C
:100130008A1124220A128A1183120313BA003A0880
:1001400083160317AF0000300A168A1124220A1200
:100150008A1183120313BA003A0883160317AC00FE
:100160003E302F06031DB528B628CF284C30F400AA
:100170009130F500A7300A168A11FD210A128A1162
:10018000831603172D0883120313BA003A08AE0032
:10019000A7300A168A11A7250A128A11072B3D30AB
:1001A0002F06031DD428D528092900302B0206303C
:1001B00003192A020318DD28DE2809292A088312D8
:1001C0000313BA003A07903E840083170008F40036
:1001D000840A00088403F500A7300A168A11FD215D
:1001E0000A128A11831603172D0883120313BA000B
:1001F0003A08AE00A7300A168A11A7250A128A11FA
:10020000013083160317AA070318AB0A0030AB07A7
:10021000072B3B302F06031D0E290F293E292A08E4
:100220002B040319142915293E290130AA02003094
:10023000031CAB03AB022A0883120313BA003A076C
:10024000903E840083170008F400840A00088403A9
:10025000F500A7300A168A11FD210A128A118316A9
:1002600003172D0883120313BA003A08AE00A73013
:100270000A168A11A7250A128A11072B3003031DBB
:1002800042294329912937302F0603194829492942
:100290004F292F302F06031D4E294F2991290A1669
:1002A0008A1549270A128A11693083120313A100A3
:1002B0009030A2008030BA003A08A3000A168A11D2
:1002C000B1220A128A11C53083120313BA003A0808
:1002D000AE0020300A168A1582270A128A11F4010C
:1002E0000F300A168A1182230A128A11A53083124E
:1002F0000313BA00BA0B7A297D2902308312031343
:10030000BA003A0883160317B000103083120313A3
:10031000BA003A0883160317AE00831203131215AE
:10032000072B03303006031D96299729322A3730D0
:100330002C06031D9C299D29322A01309C07031895
:100340009D0A00309D0715301C061D04031DA929B8
:10035000AA29322A9C019D01162A0430BA003A08C3
:1003600083160317B000133083120313BA003A0840
:1003700083160317AE000A168A1549270A128A1136
:10038000072BFF30F700FF30F800F9010A168A1535
:1003900049270A128A111E3083120313A1009130DB
:1003A000A2008130BA003A08A3000A168A11B122CD
:1003B0000A128A114D3083120313BC001930BB009E
:1003C0004F30BA00BA0BE229BB0BE229BC0BE22981
:1003D000BB290630BA003A0883160317B00015305F
:1003E00083120313BA003A0883160317AE00BB2921
:1003F0000730BA003A0883160317B000143083128E
:100400000313BA003A0883160317AE00BB2908305D
:10041000BA003A0883160317B00010308312031392
:10042000BA003A0883160317AE00BB2926088312C8
:100430000313BA00BB013B08003A0319202A072B1B
:100440003A08003A0319AD29013A0319C129033AC0
:100450000319E929013A0319F829073A0319072A68
:10046000072B072B03303006031D372A382A552A5D
:100470002F302C06031D3D2A3E2A552A01309E07A7
:1004800003189F0A00309F0715301E061F04031D26
:100490004A2A4B2A552A8312031312118316031773
:1004A0009E019F01B001B00ABB2904303006031D34
:1004B0005A2A5B2A762A2F302C06031D602A612ACD
:1004C000762A0130A0070318A10A0030A1071530D1
:1004D00020062104031D6D2A6E2A762A8312031337
:1004E000121183160317A001A101522A043030060D
:1004F000031D7B2A7C2AA22A37302C06031D812A61
:10050000822AA22A0130A2070318A30A0030A307F7
:10051000153022062304031D8E2A8F2AA22AA20147
:10052000A301033083120313BA003A08831603179A
:10053000B000113083120313BA003A088316031770
:10054000AE00BB2907303006031DA72AA82A312A8E
:1005500037302C06031DAD2AAE2A312A0130A407FC
:100560000318A50A0030A507153024062504031D2D
:10057000BA2ABB2A312AA401A5010330831203132E
:10058000BA003A0883160317B00011308312031320
:10059000BA003A0883160317AE00831203135208F9
:1005A0000A168A116C240A128A1183120313BA00E4
:1005B0003A08B50000300A168A1172210A128A110F
:1005C0008312031351080A168A116C240A128A1125
:1005D00083120313BA003A08B50001300A168A11D3
:1005E00072210A128A118312031350080A168A1103
:1005F0006C240A128A1183120313BA003A08B50058
:1006000002300A168A1172210A128A11BB290A3095
:1006100083120313A2000030A3000A168A156E2766
:100620000A128A11750883120313A5007408A40026
:100630000A168A11AD240A128A11831203132208A2
:10064000BA003A0883160317AD0064302D02031C6C
:100650002A2B2B2B2F2C633083120313BA003A085A
:1006600083160317AD002F2C831603172D08831252
:100670000313BA003A08B200A7300A168A110526F9
:100680000A128A11502C83160317B001B00A831284
:1006900003131211F4010C300A168A1182230A1274
:1006A0008A11A53083120313BA00BA0B552B582BAD
:1006B000502C033083120313BA003A088316031731
:1006C000B000113083120313BA003A0883160317DF
:1006D000AE009628831603172F0883120313BA005F
:1006E0003A08B000831603172E080A128A158822CA
:1006F0000A128A1183120313BB00BC013C08003AA2
:100700000319832B502C3B08213A0319592B033A28
:100710000319432B502C1215F4010C300A168A11C0
:1007200082230A128A11A53083120313BA00BA0B6E
:10073000972B9A2B831603172F0883120313BA00E3
:100740003A08B000831603172E080A128A154920AA
:100750000A128A1183120313BB003B088316031786
:10076000A60022302606031DB62BB72B502CB00155
:10077000B00A0A168A1549270A128A11502C12113A
:10078000F4010C300A168A1182230A128A11A5304C
:1007900083120313BA00BA0BCB2BCE2B831603178D
:1007A0002F0883120313BA003A08B0008316031708
:1007B0002E080A128A153E240A128A11502C121190
:1007C000831603172F0883120313BA003A08B000E8
:1007D000831603172E080A128A115C240A128A1142
:1007E000502C1211831603172E080A128A151C2189
:1007F0000A128A11223A031DFE2BFF2B502C592B73
:1008000012110E2C83160317B001B00AF4010C303C
:100810000A168A1182230A128A11512B8316031792
:100820002F0883120313BA003A08B0008316031787
:100830002E080A128A1501260A128A11831203133E
:10084000BB00BC013C08003A0319272C502C3B0884
:10085000233A0319022C073A0319592B502C30085C
:1008600083120313BA00BB013B08003A0319392C69
:10087000502C3A08013A0319342B033A03196A2B16
:10088000013A03198B2B073A0319BF2B023A0319BC
:10089000F12B013A0319DF2B0F3A0319002C502CCE
:1008A000093083120313BA003A0883160317AE0007
:1008B00096280A128A11102883120313B4001430E8
:1008C0003406031D642C652C892D3F30B10031089E
:1008D000B000C601C60AC501C401C3010A168A15C3
:1008E00049270A128A11253083120313A100903080
:1008F000A2008030B1003108A3000A168A11B1228B
:100900000A128A110A168A1192210A128A11831276
:1009100003133E08B10004300310B10CFF3E031D69
:100920008C2C31080339303EB20032088316031391
:10093000B600831203133E080F39303EB100310870
:1009400083160313B700831203133F08B10004306A
:100950000310B10CFF3E031DA82C31080739303EAF
:10096000B200320883160313B800831203133F0842
:100970000F39303EB100310883160313B9008312DA
:1009800003134008B10004300310B10CFF3E031DF7
:10099000C42C31080739303EB200320883160313E5
:1009A000BA008312031340080F39303EB1003108FA
:1009B00083160313BB00BC01C43083120313B100C0
:1009C0003108AE008316031336080A168A158227EB
:1009D0000A128A11C53083120313B1003108AE0028
:1009E0008316031337080A168A1582270A128A11FA
:1009F000C63083120313B1003108AE003A300A1634
:100A00008A1582270A128A11C73083120313B10094
:100A10003108AE008316031338080A168A15822798
:100A20000A128A11C83083120313B1003108AE00D4
:100A30008316031339080A168A1582270A128A11A7
:100A4000C93083120313B1003108AE003A300A16E0
:100A50008A1582270A128A11CA3083120313B10041
:100A60003108AE00831603133A080A168A15822746
:100A70000A128A11CB3083120313B1003108AE0081
:100A8000831603133B080A168A1582270A128A1155
:100A90000A3083120313B1003108F40083160313E4
:100AA00036080A168A1597270A128A118316031325
:100AB0003707F03E83120313B2003208D0000A3029
:100AC000B1003108F4008316031338080A168A159A
:100AD00097270A128A11831603133907F03E8312EF
:100AE0000313B2003208D1000A30B1003108F4001B
:100AF000831603133A080A168A1597270A128A11D1
:100B0000831603133B07F03E83120313B20032082F
:100B1000D20037303006031D8E2D8F2DC32D450892
:100B20000319932D942DA02D0130B1003108D10768
:100B30003D305102031C9D2D9E2DE62DD101E62D49
:100B400044080319A42DA52DB12D0130B1003108A1
:100B5000D00719305002031CAE2DAF2DE62DD00169
:100B6000E62D46080319B52DB62DC22D0130B10072
:100B70003108D2073D305202031CBF2DC02DE62D97
:100B8000D201E62DE62D2F303006031DC82DC92DCC
:100B9000E62D46080319CD2DCE2DD32DC401C50158
:100BA000C50AC601E62D45080319D72DD82DDD2D20
:100BB000C401C40AC501C601E62D44080319E12D8C
:100BC000E22DC22DC401C501C601C60A460803199B
:100BD000EA2DEB2DF02D42080319EF2DF02D342EC8
:100BE0000A30A8000030A9000A30A0000030A1009F
:100BF0005208B100B2013108A2003208A3000A165F
:100C00008A11D0260A128A11831203132108AB001D
:100C10002008AA000A168A114C250A128A1183128A
:100C200003132808303EB300330883160313A400CF
:100C30000A3083120313A8000030A9005208B10043
:100C4000B2013108AA003208AB000A168A114C25FD
:100C50000A128A11831203132808303EB3003308A6
:100C600083160313A500422E2030B10031088316ED
:100C70000313A400203083120313B100310883163C
:100C80000313A5008312031345080319482E492EA8
:100C90004E2E420803194D2E4E2E922E0A30A800D9
:100CA0000030A9000A30A0000030A1005108B100B6
:100CB000B2013108A2003208A3000A168A11D02618
:100CC0000A128A11831203132108AB002008AA001C
:100CD0000A168A114C250A128A1183120313280856
:100CE000303EB300330883160313A2000A30831288
:100CF0000313A8000030A9005108B100B201310867
:100D0000AA003208AB000A168A114C250A128A1171
:100D1000831203132808303EB300330883160313ED
:100D2000A300A02E2030B100310883160313A200C7
:100D3000203083120313B100310883160313A3007C
:100D40008312031344080319A62EA72EAC2E4208C3
:100D50000319AB2EAC2EF02E0A30A8000030A900EB
:100D60000A30A0000030A1005008B100B2013108E3
:100D7000A2003208A3000A168A11D0260A128A118C
:100D8000831203132108AB002008AA000A168A1157
:100D90004C250A128A11831203132808303EB3002F
:100DA000330883160313A0000A3083120313A8002C
:100DB0000030A9005008B100B2013108AA00320881
:100DC000AB000A168A114C250A128A1183120313EA
:100DD0002808303EB300330883160313A100FE2E0B
:100DE0002030B100310883160313A0002030831295
:100DF0000313B100310883160313A100C43083121A
:100E00000313B1003108AE008316031320080A163D
:100E10008A1582270A128A11C53083120313B10082
:100E20003108AE008316031321080A168A1582279B
:100E30000A128A11C63083120313B1003108AE00C2
:100E40003A300A168A1582270A128A11C73083128D
:100E50000313B1003108AE008316031322080A16EB
:100E60008A1582270A128A11C83083120313B1002F
:100E70003108AE008316031323080A168A15822749
:100E80000A128A11C93083120313B1003108AE006F
:100E90003A300A168A1582270A128A11CA3083123A
:100EA0000313B1003108AE008316031324080A1699
:100EB0008A1582270A128A11CB3083120313B100DC
:100EC0003108AE008316031325080A168A158227F7
:100ED0000A128A11013083120313B1003108C307CB
:100EE00009304306031D752F762F812FC301420859
:100EF00003197B2F7D2F01307E2F0030B100310888
:100F0000C2000800C33083120313A200CC30A1003A
:100F1000A10B882FA20B882F0000F40133300A1692
:100F20008A1182230A128A111B3083120313A20032
:100F30009D30A100A10B9A2FA20B9A2F9F2FF40195
:100F400033300A168A1182230A128A11A5308312BD
:100F50000313A100A10BAA2FAD2FF40133300A1601
:100F60008A1182230A128A11B52FB62F0000F401CC
:100F700002300A168A1182230A128A11A5308312BE
:100F80000313A100A10BC22FC52FF40128300A16AC
:100F90008A1182230A128A11A53083120313A10039
:100FA000A10BD02FD32FF40101300A168A1182230E
:100FB0000A128A11043083120313A2003D30A100EB
:100FC000A10BE02FA20BE02FF4010C300A168A11BE
:100FD00082230A128A11A53083120313A100A10BE8
:100FE000EF2FF22F0800831603131419F82FF92F8F
:100FF000F32F11081F39031DFE2FFF2FF32F0800B9
:10100000FF34FF3483120313A4002408F40074088F
:10101000A5002B280130A2020030031CA303A30269
:101020002108F5002008F400A00A0319A10A740899
:1010300084008317751C83130008F60025088400BC
:101040000130A5077608831380000008031D2928B6
:101050002A282B283A2822082304031D3028312867
:101060000A283A2825088400831380010130F400FF
:101070007408A5070130A2020030031CA303A302D9
:10108000220A031D4728230A031D4728482832281F
:10109000080083120313B40011303406031D5128D5
:1010A00052286428CB010A168A1549270A128A1584
:1010B000053083160313A9000030AA003F308312C5
:1010C0000313B1003108B0008316031329082A0462
:1010D000031D6B286C286E2822301B292F308312A9
:1010E00003133006031D752876288C2804304B0224
:1010F00003187B287C288C280130B1003108CB07ED
:101100000A168A1549270A128A1505308316031311
:10111000A9000030AA009A2837303006031D912814
:1011200092289A284B080319962897289A28013064
:10113000CB028028043083124B020318A028A12878
:10114000DA288030B1003108AE002A300A168A153C
:1011500082270A128A15831203134B08B100310744
:10116000D53E840083130008A100840A000884038C
:10117000A2008230B3003308A3000A168A11B122FC
:101180000A128A15831203134B08B1003107D73EA8
:10119000840083130008A100840A00088403A200CD
:1011A000C230B3003308A3000A168A11B1220A1212
:1011B0008A15182904304B06031DDF28E02818295A
:1011C000C030B1003108AE002A300A168A158227D5
:1011D0000A128A15831203134B08B1003107D33E5C
:1011E000840083130008A100840A00088403A2007D
:1011F0008230B3003308A3000A168A11B1220A1202
:101200008A15831203134B08B1003107D53E8400C1
:1012100083130008A100840A00088403A200C230DE
:10122000B3003308A3000A168A11B1220A128A15E4
:10123000831203134B08080083120313A700770AD5
:10124000031D2629780A031D262927294429113040
:10125000A1009130A2008130A4002408A3000A1646
:101260008A11B1220A128A15333083120313A600A1
:10127000BB30A500DF30A400A40B3C29A50B3C2902
:10128000A60B3C292230872A15302706031D492941
:101290004A297629C101AA30A1009030A2008030ED
:1012A000A4002408A3000A168A11B1220A128A1582
:1012B0009A3083120313A1009030A200C030A40022
:1012C0002408A3000A168A11B1220A128A150A30CC
:1012D0000A168A153E270A128A151330F500903037
:1012E000F6000A168A11D7210A128A157908831284
:1012F0000313410203187D297E2942290A30A400E4
:101300002408F40041080A168A1597270A128A153C
:10131000053E83120313A5002508A8004108303EAE
:101320000A168A153E270A128A1520300A168A15CF
:101330003E270A128A158312031328080A168A11F7
:101340004D230A128A1583120313A4002408A9004E
:1013500029080A168A153E270A128A1583120313D2
:101360002808013E0A168A114D230A128A15831293
:101370000313A4002408A90029080A168A153E2789
:101380000A128A153A300A168A153E270A128A1559
:10139000831203132808023E0A168A114D230A12EB
:1013A0008A1583120313A4002408A90029080A1629
:1013B0008A153E270A128A15831203132808033E52
:1013C0000A168A114D230A128A1583120313A400E8
:1013D0002408A90029080A168A153E270A128A1528
:1013E0003A300A168A153E270A128A158312031309
:1013F0002808043E0A168A114D230A128A15831200
:101400000313A4002408A90029080A168A153E27F8
:101410000A128A15831203132808053E0A168A1138
:101420004D230A128A1583120313A4002408A9006D
:1014300029080A168A153E270A128A1520300A162C
:101440008A153E270A128A15831203132808063EBE
:101450000A168A114D230A128A1583120313A40057
:101460002408A90029080A168A153E270A128A1597
:10147000831203132808073E0A168A114D230A1205
:101480008A1583120313A4002408A90029080A1648
:101490008A153E270A128A1520300A168A153E2719
:1014A0000A128A15831203132808083E0A168A11A5
:1014B0004D230A128A1583120313A4002408A900DD
:1014C00029080A168A153E270A128A158312031361
:1014D0002808093E0A168A114D230A128A1583121A
:1014E0000313A4002408A90029080A168A153E2718
:1014F0000A128A150A300A168A153E270A128A1518
:10150000013083120313A4002408C10730300800FF
:1015100083120313B80010303806031D902A912A55
:10152000A82A83160313C501C601C701C8010330E9
:1015300083120313B1003108CD00CC013F30B1005C
:101540003108B000053083160313A9000030AA004B
:101550008316031329082A04031DAF2AB02AB22ACE
:1015600022303D2C3730831203133006031DB92A75
:10157000BA2ADE2A04304C020318BF2AC02ADE2A07
:101580003130B1004C08C53E84003108831380001F
:101590000130B1003108CC074C08C53EB10031081C
:1015A000AE002A300A168A1582270A128A150530DB
:1015B00083160313A9000030AA00022B2F30300637
:1015C000031DE32AE42A022B04304C020318E92A03
:1015D000EA2A022B3030B1004C08C53E84003108A5
:1015E000831380000130B1003108CC074C08C53EA0
:1015F000B1003108AE002A300A168A1582270A1275
:101600008A15D72A043083124C06031D082B092B98
:101610003C2CB90139080A168A114D230A128A1581
:1016200083120313B1003908343E84003108831358
:1016300080000130B1003108B90704303902031CC1
:10164000222B232B0A2B3430B1003108F400043054
:10165000F5000030F600C5300A168A112C240A1253
:101660008A1574087504031D362B372B392B21304E
:101670003D2C013083120313CD024D08031D412B75
:10168000422BC72B0A168A1549270A128A15F4011C
:101690000C300A168A1182230A128A15A530831289
:1016A0000313B100B10B522B552B8A308312031355
:1016B000A1009030A2008030B1003108A3000A16CA
:1016C0008A11B1220A128A15BA3083120313A100BB
:1016D0009030A200C030B1003108A3000A168A1170
:1016E000B1220A128A153C3083120313B10031086B
:1016F000CF000F30B1003108CE00BA2BC930B10095
:101700003108AE000A30A0000030A1004E08B2003F
:10171000B3013208A2003308A3000A168A11D026AA
:101720000A128A15831203132008303E0A168A15FE
:1017300082270A128A15CA3083120313B1003108B6
:10174000AE000A30A8000030A9004E08B200B30174
:101750003208AA003308AB000A168A114C250A1277
:101760008A15831203132808303E0A168A15822729
:101770000A128A15831203134E08031DC02BC12BB6
:101780007E2BCF010330B1003108CD00052C0A16A5
:101790008A1549270A128A15CA3083120313A10039
:1017A0009030A2008030B1003108A3000A168A11DF
:1017B000B1220A128A15C03083120313B100310816
:1017C000AE004D08303E0A168A1582270A128A1585
:1017D000D93083120313A1009030A200C230B100AF
:1017E0003108A3000A168A11B1220A128A154D3057
:1017F00083120313B3001930B2004F30B100B10BA4
:10180000FF2BB20BFF2BB30BFF2B0A168A154927B0
:101810000A128A15693083120313A1009030A200C6
:101820008030B1003108A3000A168A11B1220A12D1
:101830008A15C53083120313B1003108AE00203081
:101840000A168A1582270A128A15F4010F300A1621
:101850008A1182230A128A15A53083120313B1005C
:10186000B10B302C332C83120313CC0105308316BB
:101870000313A9000030AA003030080083120313BC
:10188000B300770A031D482C780A031D482C492C05
:10189000572C1130A1009130A2008130B1003108E5
:1018A000A3000A168A11B1220A128A15002E1330DB
:1018B0003306031D5C2C5D2C632CCA010A168A15A5
:1018C00049270A128A152F30831203133006031D8D
:1018D0006A2C6B2C892C7908FF3EB100FF3003186D
:1018E0000030B2003208803A803C031D792C310868
:1018F0004A0203187C2C7D2C892C0130831203139F
:10190000B1003108CA070A168A1549270A128A1532
:10191000AF2C3730831203133006031D902C912C0B
:10192000992C4A080319952C962C992C0130CA023F
:10193000832C2F303006031D9E2C9F2CAF2C790852
:10194000FF3EB100FF3003180030B2004A083106F4
:101950003204031DAC2CAD2CAF2CCA01832C7908AA
:10196000831203134A020318B62CB72C002E4730FB
:10197000A1009030A2008030B1003108A3000A1607
:101980008A11B1220A128A150A3083120313B10098
:101990003108F4004A080A168A1597270A128A1590
:1019A000053E83120313B2003208B400C030B10008
:1019B0003108AE004A08303E0A168A1582270A12FC
:1019C0008A158312031334080A168A114D230A124A
:1019D0008A1583120313B1003108B500C230B1007B
:1019E0003108AE0035080A168A1582270A128A15B0
:1019F000831203133408013E0A168A114D230A127A
:101A00008A1583120313B1003108B500C330B10049
:101A10003108AE0035080A168A1582270A128A157F
:101A2000C43083120313B1003108AE003A300A16F5
:101A30008A1582270A128A15831203133408023E7C
:101A40000A168A114D230A128A1583120313B10054
:101A50003108B500C530B1003108AE0035080A16AE
:101A60008A1582270A128A15831203133408033E4B
:101A70000A168A114D230A128A1583120313B10024
:101A80003108B500C630B1003108AE0035080A167D
:101A90008A1582270A128A15C73083120313B100F0
:101AA0003108AE003A300A168A1582270A128A15C2
:101AB000831203133408043E0A168A114D230A12B6
:101AC0008A1583120313B1003108B500C830B10084
:101AD0003108AE0035080A168A1582270A128A15BF
:101AE000831203133408053E0A168A114D230A1285
:101AF0008A1583120313B1003108B500C930B10053
:101B00003108AE0035080A168A1582270A128A158E
:101B1000CA3083120313B1003108AE0020300A1618
:101B20008A1582270A128A15831203133408063E87
:101B30000A168A114D230A128A1583120313B10063
:101B40003108B500CB30B1003108AE0035080A16B7
:101B50008A1582270A128A15831203133408073E56
:101B60000A168A114D230A128A1583120313B10033
:101B70003108B500CC30B1003108AE0035080A1686
:101B80008A1582270A128A15CD3083120313B100F9
:101B90003108AE0020300A168A1582270A128A15EB
:101BA000831203133408083E0A168A114D230A12C1
:101BB0008A1583120313B1003108B500CE30B1008D
:101BC0003108AE0035080A168A1582270A128A15CE
:101BD000831203133408093E0A168A114D230A1290
:101BE0008A1583120313B1003108B500CF30B1005C
:101BF0003108AE0035080A168A1582270A128A159E
:101C0000080083120313B40010303406031D092E9C
:101C10000A2E4A2E83160313C101C201C301C40157
:101C2000BD01BE01BF01C00183120313C901C80178
:101C30003F30B1003108B0000A168A1549270A1250
:101C40008A15693083120313A1009030A2008030FE
:101C5000B1003108A3000A168A11B1220A128A15AE
:101C6000C53083120313B1003108AE0020300A16CC
:101C70008A1582270A128A15F4010F300A168A1172
:101C800082230A128A15A53083120313B100B10B07
:101C9000472E4A2E3730831203133006031D512E70
:101CA000522E932E043049020318572E582E932E8D
:101CB0003130B1004908C13E8400310883138000EF
:101CC0000130B1003108C9074908C53EB1003108EB
:101CD000AE002A300A168A1582270A128A150430A5
:101CE000831203134906031D762E772ED62E3F301E
:101CF000B1003108B0000A168A1549270A128A1560
:101D0000F4010C300A168A1182230A128A15A530B2
:101D100083120313B100B10B8B2E8E2E831203138B
:101D2000C701C70AD62E2F303006031D982E992ED4
:101D3000D62E0430490203189E2E9F2ED62E303008
:101D4000B1004908C13E840031088313800001308E
:101D5000B1003108C9074908C53EB1003108AE00DD
:101D60002A300A168A1582270A128A15043083122D
:101D700003134906031DBD2EBE2ED62E3F30B100E3
:101D80003108B0000A168A1549270A128A15F4018B
:101D90000C300A168A1182230A128A15A530831282
:101DA0000313B100B10BD22ED52E8E2E043049066E
:101DB000031DDB2EDC2EFE2F4703031DE02EE12E3C
:101DC000092FC7010030A1009030A2008030B1007F
:101DD0003108A3000A168A11B1220A128A15C530E9
:101DE00083120313B1003108AE0020300A168A15A1
:101DF00082270A128A15F4010F300A168A118223EB
:101E00000A128A15A53083120313B100B10B062FF5
:101E1000092F3730831203133006031D102F112FA3
:101E20002F2F043048020318162F172F2F2F313071
:101E3000B1004808BD3E84003108831380000130A2
:101E4000B1003108C8074808C53EB1003108AE00EE
:101E50002A300A168A1582270A128A15522F2F3025
:101E60003006031D342F352F522F0430480203183B
:101E70003A2F3B2F522F3030B1004808BD3E84002E
:101E80003108831380000130B1003108C8074808C9
:101E9000C53EB1003108AE002A300A168A158227E5
:101EA0000A128A150430831203134806031D592FA2
:101EB0005A2FFE2FBD30B1003108F4000430F50078
:101EC0000030F600C1300A168A112C240A128A1535
:101ED00074087504031D6D2F6E2FBD2F0A168A1509
:101EE00049270A128A15F4010C300A168A11822336
:101EF0000A128A15A53083120313B100B10B7E2F8D
:101F0000812F583083120313A1009030A20080303B
:101F1000B1003108A3000A168A11B1220A128A15EB
:101F200083120313B5013508C13E840083130008F2
:101F3000B1003108F50035080A168A15E2270A12A1
:101F40008A15013083120313B1003108B50704303C
:101F50003502031CAC2FAD2F932F4D30831203138A
:101F6000B3001930B2004F30B100B10BB52FB20B36
:101F7000B52FB30BB52F2330FF2F0A168A1549272B
:101F80000A128A15F4010C300A168A1182230A12E9
:101F90008A15A53083120313B100B10BCD2FD02FBA
:101FA0007A3083120313A1009030A2008030B10078
:101FB0003108A3000A168A11B1220A128A15E830E4
:101FC00083120313A1009030A200C030B100310889
:101FD000A3000A168A11B1220A128A154D30831203
:101FE0000313B3001930B2004F30B100B10BF62F1C
:101FF000B20BF62FB30BF62F2430FF2F3030080032
:10200000523445342D3445344E34543445345234EE
:102010002034503441345334533457344F345234D1
:102020004434203400344E342034543449344D3454
:102030004534203420342034203420344534563480
:102040002034533450340A340034203420342034C3
:102050002034483448343A344D344D343A345334CF
:1020600053342034203420342034003420342034BD
:10207000543449344D344534203420342034203411
:10208000203445345634203453345034003423340F
:102090002034543449344D344534203420342034F1
:1020A00020342034453456342034533450340034F2
:1020B0004E3465347734203450346134733473349F
:1020C00077346F3472346434203473346534743448
:1020D0000034203445344E345434453452342034A2
:1020E000503441345334533457344F3452344434DD
:1020F00020340034203442346F3474346834203453
:10210000503461347334733477346F3472346434DC
:102110002034003459346F347534203461347234CF
:102120006534203462346C346F3463346B3465341A
:1021300064340034533465347234693461346C343B
:1021400020345434653472346D3469346E346134FF
:102150006C34003444346F3477346E346C346F3400
:1021600061346434653464342D344F3470346534F0
:102170006E34003477346134693474342034663416
:102180006F34723420343134353420346D34693452
:102190006E340034573472346F346E346734203404
:1021A000503461347334733477346F34723464343C
:1021B000003461347434743465346D347034743480
:1021C0002034723465346D34613469346E340034D3
:1021D000203420344E346F34743420344D34613420
:1021E000743463346834653464340034433468349C
:1021F00061346E3467346534203470346134733440
:10220000733477346434003444346F3477346E3448
:102210006C346F346134643420346C346F3467341C
:1022200000344E346F3420344C346F3467342034EF
:102230004534783469347334743400344C346F3436
:1022400067347334203443346C346534613472340D
:1022500065346434003443346C346534613472342E
:1022600020346C346F346734003453346534743440
:102270002034743469346D34653400345634693430
:102280006534773420346C346F346734003431343F
:102290003034313430340034433420340034473463
:1022A000313400344734323400344734333400346A
:1022B00047343434003447344E34003447345234D5
:1022C00000348316031306083F388600080083167F
:1022D00003138801091189100A128A1182270A162C
:1022E0008A110800F6000A168A150C270A168A11A8
:1022F000D0300A168A1528270A168A1176080A1677
:102300008A1528270A168A118312031335080A161C
:102310008A1528270A168A110A168A1515270A16F9
:102320008A11080002300A168A1118230A168A1127
:1023300083120313A3002308BE0001300A168A117A
:1023400018230A168A1183120313A3002308BF005F
:1023500000300A168A1118230A168A1183120313F1
:10236000A3002308C0000800F5000A128A11F32711
:102370000A168A118316031391150A128A11F3277C
:102380000A168A11831203131308F4007408F60066
:102390007503031DCC29CD29D1298316031391166A
:1023A000D429831603139112111676080800EC291C
:1023B0007608FF00750884000A168A1500200A16A0
:1023C0008A110A168A153E270A168A110130F50766
:1023D0000318F60A0030F607760883120313FF008D
:1023E000750884000A168A1500200A168A11003A18
:1023F000031DFB29FC29D829080083120313A1001F
:102400002108F6007608A0000F2A0130F6007608B1
:10241000A0070130F4070318F50A0030F507750826
:10242000FF00740884000A168A1500200A168A1113
:10243000F600200884007608831780000008031D3A
:10244000222A232A052A0800F5007508031D292AD7
:102450002A2A2F2A8312031306083F394D2A3F30B8
:10246000831203130605F4003F3074060319392A5A
:102470003A2A412A530803193E2A3F2A412AD30106
:102480002A2A3F300605F4003F307406031D492A0E
:102490004A2A4C2AD301D30A3F300800831203137F
:1024A000A300702A2108FF00200884000A168A155C
:1024B00000200A168A11A2002208F50023080A1635
:1024C0008A15E2270A168A11013083120313A00726
:1024D0000318A10A0030A1070130A2002208A307B7
:1024E0002108FF00200884000A168A1500200A1619
:1024F0008A11003A031D7D2A7E2A522A080083127F
:102500000313981718162D08B1002E08B2002F08D3
:10251000B3003008B40004300310B10DB20DB30D98
:10252000B40DFF3E031D8C2A3408A3003308A2001B
:102530003208A1003108A0000130A7003130A60008
:102540002D30A5000030A4000A168A1168260A164C
:102550008A11831203132008FF3E83160313990088
:102560000800F4018312031323080A168A11822338
:102570000A168A11D32AF401F40A2208FF0021085E
:1025800084000A168A1500200A168A110A168A1172
:1025900082230A168A11013083120313A10703183C
:1025A000A20A0030A207831203132208FF002108A9
:1025B00084000A168A1500200A168A11003A031DA3
:1025C000E22AE32ABB2A08008312031394152D087C
:1025D000B1002E08B2002F08B3003008B40002305A
:1025E0000310B10DB20DB30DB40DFF3E031DF02A63
:1025F0003408A3003308A2003208A1003108A0006B
:102600000130A7003130A6002D30A5000030A40015
:102610000A168A1168260A168A11831203132008E3
:10262000FF3E8316031393008312031394160800CE
:1026300083120313A1000A168A150C270A168A11A1
:10264000D0300A168A1528270A168A118312031316
:1026500021080A168A1528270A168A110A168A15C9
:1026600033270A168A11D1300A168A1528270A1626
:102670008A1100300A168A11B4210A168A118312AF
:102680000313A0002008A2000A168A1515270A16AF
:102690008A11831203132208080083120313A10076
:1026A0000A168A150C270A168A11A0300A168A15EE
:1026B00028270A168A118312031321080A168A157D
:1026C00028270A168A110A168A1533270A168A112C
:1026D000A1300A168A1528270A168A1100300A1610
:1026E0008A11B4210A168A1183120313A00020084C
:1026F000A2000A168A1515270A168A1183120313D7
:102700002208080083120313A0007418882B8C2B56
:102710008312031309158F2B831203130911200849
:10272000F03988008914A630F500F50B952B0000D0
:1027300083120313891020080F39F50003300310AA
:10274000F50DFF3E031D9F2B0310750D88008914A6
:10275000A630F500F50BAA2B000083120313891095
:102760001B30F6009E30F500F50BB42BF60BB42BA6
:10277000000008000130F7070318F80A0030F807D6
:102780000A3077067804031DC62BC72BC92BF70127
:10279000F8010A3083120313A4002408F400770818
:1027A0000A168A1597270A168A11053E8312031303
:1027B000A5002508A600AB30A0000030A100260827
:1027C0000A168A114E220A168A110A307902031853
:1027D000EA2BEB2BF12B013083120313A400240806
:1027E000F9070800003083120313B0000130AF0076
:1027F0008630AE00A030AD000A168A11E4220A1617
:102800008A110A168A15C7270A168A110A168A110A
:1028100061210A168A110A168A1167210A168A117D
:102820000A168A15FD260A168A110A168A151E2707
:102830000A168A11003083120313B0000030AF0073
:102840002530AE008030AD000A168A117F220A16AC
:102850008A118B170B17080083120313A2005B2C3D
:1028600022088400831300080319372C382C442CC9
:10287000740884000008A0002208840000082006D4
:102880000319432C442C532C740884000008A00026
:10289000220884000008A10020082102F400F501AC
:1028A000031CF5036B2C0130A0002008A2070130A7
:1028B000A0002008F4070130F5020030031CF603E5
:1028C000F602750A031D682C760A031D682C692C14
:1028D000302CF401F501080083120313B400B20197
:1028E000B3010A30A8000030A9003408AE00AF01DF
:1028F0002E08AA002F08AB000A168A114C250A16CA
:102900008A11831203132808B0003008B1000A307E
:10291000A0000030A1003408AE00AF012E08A200D4
:102920002F08A3000A168A11D0260A168A118312CC
:1029300003132008B0003008B3003308AE000330A2
:102940000310AE0DFF3E031DA02C03102E0DAF0093
:102950002F08B20031083207080083120313A701C1
:10296000A801220823040319B62CB72CEE2CA601CB
:10297000A60AC52C01300310A20DA30DFF3E031DB6
:10298000BB2C0130F6007608A607A31FC82CC92C63
:10299000BA2C01300310A70DA80DFF3E031DCA2C51
:1029A00023082502031DD62C22082402031CD92C3F
:1029B000DA2CE12C2208A4022308031CA503A5029B
:1029C000271401300310A30CA20CFF3E031DE22CC0
:1029D0000130A602031DED2CEE2CC92C2808A30003
:1029E0002708A20008008C1CF62CF72C432D013080
:1029F00083160313A7070318A80A0030A807E230BC
:102A00002706043003192806031D072D082D412D24
:102A1000A701A801831203134F080319102D112DCC
:102A2000132D0130CF024F08031D172D182D2F2D08
:102A3000831603132A08803AFF0080307F02031DAB
:102A4000232D01302902031C262D272D2F2DFF3089
:102A500083160313A9070318AA0AFF30AA078312D3
:102A600003134F08031D352D362D412D4E08031934
:102A70003A2D3B2D412D0130CE023C30F000700844
:102A8000CF0083128C107308FF0072088A00710E49
:102A90008300FE0E7E0E090083120313AD01AB1FEF
:102AA000522D532D5A2DAA09AB09AA0A0319AB0AB4
:102AB000AD01AD0AA91F5D2D5E2D632DA809A909E1
:102AC000A80A0319A90A280829040319682D692DE1
:102AD000982DAC01AC0A772D01300310A80DA90D7B
:102AE000FF3E031D6D2D0130F5007508AC07A91FD1
:102AF0007A2D7B2D6C2D29082B02031D812D280892
:102B00002A02031C842D852D8B2D2808AA02290852
:102B1000031CAB03AB0201300310A90CA80CFF3E51
:102B2000031D8C2D0130AC02031D972D982D7B2D9C
:102B30002D0803199C2D9D2DA22DAA09AB09AA0AC7
:102B40000319AB0A2B08A9002A08A8000800831261
:102B50000313B200B630A0000030A1000630A2007E
:102B60000030A300AB300A128A1502200A168A111F
:102B7000831203133208A0000130A1000230A2002A
:102B80000030A300B1300A128A1502200A168A11F9
:102B90000A3083120313A0000030A1002E08AF00FA
:102BA000B0012F08A2003008A3000A168A11D0260F
:102BB0000A168A11831203132008303EB10031082F
:102BC00083160313B3000A3083120313A8000030E6
:102BD000A9002E08AF00B0012F08AA003008AB00F2
:102BE0000A168A114C250A168A1183120313280823
:102BF000303EB100310883160313B400B5010A1644
:102C00008A11BA230A168A11080083120313B60028
:102C10003630A1009030A2008030B3003308A3000A
:102C20000A168A11B1220A168A110A168A11392740
:102C30000A168A11831203133608A1000130A2007C
:102C4000CB30B3003308A3000A168A11B1220A164A
:102C50008A11CE3083120313B3003308AE000A305A
:102C6000A0000030A1003208B400B5013408A20071
:102C70003508A3000A168A11D0260A168A11831273
:102C800003132008303E0A168A1582270A168A1175
:102C9000CF3083120313B3003308AE000A30A8000C
:102CA0000030A9003208B400B5013408AA00350884
:102CB000AB000A168A114C250A168A1183120313D7
:102CC0002808303E0A168A1582270A168A1108003B
:102CD000003083120313AB000030AA000030A900BB
:102CE0000030A80023082204210420040319792EAF
:102CF0007A2EC72EAC01AC0A8A2E0130F4000310E4
:102D0000A00DA10DA20DA30DF40B7F2E0130F40038
:102D10007408AC07A31F8D2E8E2E7D2E0130F4007B
:102D20000310A80DA90DAA0DAB0DF40B902E2308CE
:102D30002702031DA52E22082602031DA52E210809
:102D40002502031DA52E20082402031CA82EA92E4F
:102D5000B82E2008A4022108031C210FA502220876
:102D6000031C220FA6022308031C230FA70228140A
:102D700001300310A30CA20CA10CA00CFF3E031DFC
:102D8000B92E0130AC02031DC62EC72E8E2E2B0885
:102D9000A3002A08A2002908A1002808A000080012
:102DA00083120313A501A11FD62ED72EDE2EA00954
:102DB000A109A00A0319A10AA501A50AA31FE12ED2
:102DC000E22EEB2EA209A309A20A0319A30A0130DD
:102DD000F4007408A506A601A70120082104031920
:102DE000F22EF32E2A2FA401A40A012F0130031082
:102DF000A00DA10DFF3E031DF72E0130F400740855
:102E0000A407A11F042F052FF62E01300310A60DD5
:102E1000A70DFF3E031D062F21082302031D122FBD
:102E200020082202031C152F162F1D2F2008A20296
:102E30002108031CA303A302261401300310A10CD4
:102E4000A00CFF3E031D1E2F0130A402031D292FDD
:102E50002A2F052F250803192E2F2F2F342FA609CF
:102E6000A709A60A0319A70A2708A1002608A00097
:102E700008000A168A1192210A168A118312031376
:102E80003E08B00004300310B00CFF3E031D432F7A
:102E900030080339303EB100310883160313B60001
:102EA000831203133E080F39303EB00030088316FA
:102EB0000313B700831203133F08B000043003105C
:102EC000B00CFF3E031D5F2F30080739303EB100C4
:102ED000310883160313B800831203133F080F3918
:102EE000303EB000300883160313B9008312031379
:102EF0004008B00004300310B00CFF3E031D7B2FD0
:102F000030080739303EB100310883160313BA0088
:102F10008312031340080F39303EB0003008831687
:102F20000313BB00BC01C23083120313B00030088E
:102F3000AE008316031336080A168A1582270A166E
:102F40008A11C33083120313B0003008AE00831619
:102F5000031337080A168A1582270A168A11C43005
:102F600083120313B0003008AE003A300A168A15F7
:102F700082270A168A11C53083120313B000300865
:102F8000AE008316031338080A168A1582270A161C
:102F90008A11C63083120313B0003008AE008316C6
:102FA000031339080A168A1582270A168A11C730B0
:102FB00083120313B0003008AE003A300A168A15A7
:102FC00082270A168A11C83083120313B000300812
:102FD000AE00831603133A080A168A1582270A16CA
:102FE0008A11C93083120313B0003008AE00831673
:102FF00003133B080A168A1582270A168A1108004D
:10300000FF1B0A2883137F1883170008840A0319FB
:10301000FF0A08007F087F398A000408840A031920
:04302000FF0A820021
:103DFA00831603139F17831203131F14080064000A
:103E0A008001840A0406031900340406052F0A12E5
:103E1A008A11F3270A168A15831603131114080048
:103E2A000A128A11F3270A168A1583160313111523
:103E3A0008008312031312149214FA308316031320
:103E4A0092008C140800F4000A128A11F3270A1649
:103E5A008A15740883120313930008000A168A1538
:103E6A0015270A168A150A168A150C270A168A159C
:103E7A000800F40074088312031399000C1E462FDD
:103E8A00472F432F0C120800F40101300A168A1139
:103E9A0082230A168A15043083120313A2003D30C6
:103EAA00A100A10B562FA20B562F08007E088A00EC
:103EBA007F0882000A168A155B270A168A1580006F
:103ECA00840A04087D0603190034FF0A0319FE0A4E
:103EDA005F2F831203131F151F19742F752F712F4C
:103EEA001E08A100831603131E0883120313A000E1
:103EFA002108F5002008F400080083120313AF001C
:103F0A00F4012E080A168A1182230A168A15F40168
:103F1A00F40A831203132F080A168A1182230A1637
:103F2A008A15080083120313A100A001211C9E2FE9
:103F3A009F2FA32F7408F5007508A0070310F40D2E
:103F4A000310A10C2108031DAB2FAC2F9B2F2008B7
:103F5A0008005B3491345E3491344F3491345234D6
:103F6A00913455349134583491343E3491342B344D
:103F7A0091340434913435349134F63490344F34D6
:103F8A004E34003400300A168A1118230A168A158C
:103F9A0083120313B6003608B70037087F39B60014
:103FAA003608B7003708B6003608B50000300A16DA
:103FBA008A1172210A168A150800F6000A168A154D
:103FCA000C270A168A15A0300A168A1528270A16F7
:103FDA008A1576080A168A1528270A168A15750870
:103FEA000A168A1528270A168A150A168A151527FF
:063FFA000A168A150800FA
:02400E00FB3F76
:00000001FF
